{
  "contractName": "Voting",
  "abi": [
    {
      "inputs": [],
      "stateMutability": "nonpayable",
      "type": "constructor"
    },
    {
      "inputs": [],
      "name": "CC",
      "outputs": [
        {
          "internalType": "uint256",
          "name": "",
          "type": "uint256"
        }
      ],
      "stateMutability": "view",
      "type": "function",
      "constant": true
    },
    {
      "inputs": [
        {
          "internalType": "uint256",
          "name": "",
          "type": "uint256"
        }
      ],
      "name": "candidates",
      "outputs": [
        {
          "internalType": "uint256",
          "name": "id",
          "type": "uint256"
        },
        {
          "internalType": "string",
          "name": "name",
          "type": "string"
        },
        {
          "internalType": "uint256",
          "name": "voteCount",
          "type": "uint256"
        }
      ],
      "stateMutability": "view",
      "type": "function",
      "constant": true
    },
    {
      "inputs": [
        {
          "internalType": "string",
          "name": "candidate_1_",
          "type": "string"
        },
        {
          "internalType": "string",
          "name": "candidate_2_",
          "type": "string"
        }
      ],
      "name": "setElections",
      "outputs": [],
      "stateMutability": "nonpayable",
      "type": "function"
    }
  ],
  "bytecode": "0x608060405234801561001057600080fd5b5060408051808201909152600b81526a43616e646964617465203160a81b602082015261003c9061006c565b60408051808201909152600b81526a21b0b73234b230ba32901960a91b60208201526100679061006c565b6101d6565b6001805490600061007c836101ad565b90915550506040805160608101825260018054808352602080840186815260008587018190529283528282529490912083518155935180519394936100c89385019291909101906100d9565b506040820151816002015590505050565b8280546100e590610172565b90600052602060002090601f016020900481019282610107576000855561014d565b82601f1061012057805160ff191683800117855561014d565b8280016001018555821561014d579182015b8281111561014d578251825591602001919060010190610132565b5061015992915061015d565b5090565b5b80821115610159576000815560010161015e565b600181811c9082168061018657607f821691505b602082108114156101a757634e487b7160e01b600052602260045260246000fd5b50919050565b60006000198214156101cf57634e487b7160e01b600052601160045260246000fd5b5060010190565b610481806101e56000396000f3fe608060405234801561001057600080fd5b50600436106100415760003560e01c80633477ee2e146100465780636509e77614610071578063f4c27b5414610088575b600080fd5b610059610054366004610353565b61009d565b6040516100689392919061036c565b60405180910390f35b61007a60015481565b604051908152602001610068565b61009b6100963660046102f0565b610148565b005b600060208190529081526040902080546001820180549192916100bf906103d1565b80601f01602080910402602001604051908101604052809291908181526020018280546100eb906103d1565b80156101385780601f1061010d57610100808354040283529160200191610138565b820191906000526020600020905b81548152906001019060200180831161011b57829003601f168201915b5050505050908060020154905083565b6101518261015e565b61015a8161015e565b5050565b6001805490600061016e8361040c565b90915550506040805160608101825260018054808352602080840186815260008587018190529283528282529490912083518155935180519394936101ba9385019291909101906101cb565b506040820151816002015590505050565b8280546101d7906103d1565b90600052602060002090601f0160209004810192826101f9576000855561023f565b82601f1061021257805160ff191683800117855561023f565b8280016001018555821561023f579182015b8281111561023f578251825591602001919060010190610224565b5061024b92915061024f565b5090565b5b8082111561024b5760008155600101610250565b600082601f83011261027557600080fd5b81356001600160401b038082111561028f5761028f610435565b604051601f8301601f19908116603f011681019082821181831017156102b7576102b7610435565b816040528381528660208588010111156102d057600080fd5b836020870160208301376000602085830101528094505050505092915050565b6000806040838503121561030357600080fd5b82356001600160401b038082111561031a57600080fd5b61032686838701610264565b9350602085013591508082111561033c57600080fd5b5061034985828601610264565b9150509250929050565b60006020828403121561036557600080fd5b5035919050565b83815260006020606081840152845180606085015260005b818110156103a057868101830151858201608001528201610384565b818111156103b2576000608083870101525b5060408401949094525050601f91909101601f19160160800192915050565b600181811c908216806103e557607f821691505b6020821081141561040657634e487b7160e01b600052602260045260246000fd5b50919050565b600060001982141561042e57634e487b7160e01b600052601160045260246000fd5b5060010190565b634e487b7160e01b600052604160045260246000fdfea26469706673582212207cc62997b68d168f064137da644644ec8711ebaf96a1c726e59680ec1e43a53364736f6c63430008060033",
  "immutableReferences": {},
  "source": "pragma solidity ^0.8.0;\n\ncontract Voting {\n\n    constructor () {\n        addCandidate(\"Candidate 1\");\n        addCandidate(\"Candidate 2\");\n    }\n    \n    // constructor ( string memory candidate_1_, string memory candidate_2_ ){\n    //     addCandidate(candidate_1_);\n    //     addCandidate(candidate_2_);\n    // }\n    \n    struct Candidate {\n        uint id;\n        string name;\n        uint voteCount;\n    }\n    \n    mapping(uint => Candidate) public candidates;\n    uint public CC;\n    \n    function addCandidate (string memory _name) private {\n        CC++;\n        candidates[CC] = Candidate(CC, _name, 0);\n    }\n    \n    function setElections ( string memory candidate_1_, string memory candidate_2_ ) public {\n        addCandidate(candidate_1_);\n        addCandidate(candidate_2_);\n    }\n}\n\n\n\n",
  "sourcePath": "/home/dev/_Projects_/_blockchain_/le-vote/contracts/Voting.sol",
  "compiler": {
    "name": "solc",
    "version": "0.8.6+commit.11564f7e.Emscripten.clang"
  },
  "schemaVersion": "3.4.2",
  "updatedAt": "2021-07-27T20:33:29.828Z",
  "networkType": "ethereum",
  "devdoc": {
    "kind": "dev",
    "methods": {},
    "version": 1
  },
  "userdoc": {
    "kind": "user",
    "methods": {},
    "version": 1
  }
}